:1000000018C4000033C4000031C400002FC4000035
:100010002DC400002BC4000029C4000027C4000028
:1000200025C4000023C400000C94941E0C947C1F73
:100030000C9401131BC4000019C4000017C4000075
:1000400015C4000013C4000011C400000FC4000058
:100050000DC400000C94701E09C4000007C4000009
:1000600005C4000003C4000001C40000FFC3000079
:10007000FDC30000FBC30000F9C30000F7C300008C
:10008000F5C30000F3C30000F1C30000EFC300009C
:10009000EDC30000EBC30000E9C30000E7C30000AC
:1000A000E5C30000E3C30000E1C3000005010980CF
:1000B000A10185031A01002A8F00160100268F0076
:1000C000950175108100C0050C0901A10185041975
:1000D000012AA002150126A002950175108100C019
:1000E00005010906A1018506050719E029E71500A4
:1000F00025019508750181020507190029EF1500F2
:10010000250195F07501810205081901290595055C
:1001100075019102950175039101C005010906A1C0
:1001200001050719E029E7150025019508750181EA
:10013000029501750881010507190029FF150026A0
:10014000FF009506750881000508190129051500AD
:100150002501950575019102950175039101C0096D
:10016000023B00020100A0FA0904000001030101A2
:100170000009211101000122440007058103080044
:10018000010904010001030000000921110100011F
:10019000226F000705820320000112010002000007
:1001A000000853530100010001020001180333004D
:1001B000780033006D006100630072006F00700012
:1001C0006100640000001C035200610072006500C1
:1001D00050006F007400610074006F00380044002C
:1001E00045000000040309040000000000000000B6
:1001F00000000000000000000000000000000000FF
:1002000000000000000000000000000000000000EE
:1002100000000000000000008080C040602020300E
:1002200010180E070301070E1C3020606040C0C08C
:1002300080800000000000000000000000000000BE
:1002400000000000000000000000000000000000AE
:10025000000000000000000000000000000000009E
:10026000000000000000000000000000000000008E
:10027000000000000000000000000000000000007E
:10028000000000000000000000000000000080C02E
:10029000607030180C060603010100000000000029
:1002A000000000000000000000000000000000004E
:1002B00001010303030606060C081830306060C015
:1002C000606020303018F8000000000000000000DE
:1002D000000000000000000000000000000000001E
:1002E0000000000000000000010101010202020202
:1002F0000404040408080808181010101020202016
:100300002040404040C08080C0E0381C060301000F
:1003100000000000000000000000000E1F0E04009E
:100320003830703070E0E0C0400000000000000095
:1003300080800000C0E06060706060E0C00000008D
:1003400000000000E0FC0F000000000000000000C2
:10035000000000000000000000000000000000009D
:10036000000000000000000000000000000000008D
:10037000000000000000000000000000000000007D
:10038000000060603090001F31606060606060203D
:100390003030101818080C0C0C0C181818183830BD
:1003A00030303060606060C0C0C0C080808080033A
:1003B000070700FFFF0008013838020001030600AC
:1003C00000000000071C78E0800000000000000032
:1003D000000000000000000000000000000000001D
:1003E000000000000000000000000000000000000D
:1003F00000000000000000000000000000000000FD
:1004000000000000000000000000000000000000EC
:1004100000000000000000000080C0C040602030EC
:1004200030181C0E030103071C3830606060C0C028
:10043000808080000000000000000000000000003C
:1004400000000000000000000000000000000000AC
:10045000000000000000000000000000000000009C
:10046000000000000000000000000000000000008C
:10047000000000000000000000000000000000007C
:100480000000000000000000C0E0301818081898B4
:100490003070F0B0180C06070301010000000000E6
:1004A000000000000000000000000000000000004C
:1004B00001010103030306060C0C1818306060608C
:1004C000C06060303030F8F0000000000000000034
:1004D000000000000000000000000000000000001C
:1004E0000000000000000000010101010202020200
:1004F0000404040408080808181010101020202014
:100500002040404040C08080FFFFC080808E0600B9
:1005100000000101000000000000000E1E1E0E0081
:10052000103870707070E0E0C00000000000000043
:1005300000808000000000000000000000000000BB
:100540000000000080F83F070000000000000000ED
:10055000000000000000000000000000000000009B
:10056000000000000000000000000000000000008B
:10057000000000000000000000000000000000007B
:100580000000000000000000000000010101010364
:10059000030303060606060C0C0C1C18181838304A
:1005A00030303060606060E0C0C0C080808080001B
:1005B00087C7C70000000000000000000000000026
:1005C00000000000070F3CF0C00000000000000029
:1005D000000000000000000000000000000000001B
:1005E000000000000000000000AE00AF222325261E
:1005F00028292A2C2D2F3032333536383A3B3D3ED0
:100600004042434547494A4C4E5051535557595A19
:100610005C5E6062646668696B6D6F717375777933
:100620007B7D7F81838587898A8C8E909294969832
:100630009A9C9E9FA1A3A5A7A8AAACAEAFB1B3B444
:10064000B6B8B9BBBCBEBFC1C2C3C5C6C7C9CACB99
:10065000CCCDCED0D1D2D2D3D4D5D6D7D7D8D9D964
:10066000DADADBDBDBDCDCDCDCDCDDDDDDDDDCDCCD
:10067000DCDCDCDBDBDBDADAD9D9D8D7D7D6D5D4EA
:10068000D3D2D2D1D0CECDCCCBCAC9C7C6C5C3C2B6
:10069000C1BFBEBCBBB9B8B6B4B3B1AFAEACAAA80B
:1006A000A7A5A3A19F9E9C9A98969492908E8C8ABF
:1006B00089878583817F7D7B79777573716F6D6B9A
:1006C0006968666462605E5C5A5957555351504E72
:1006D0004C4A4947454342403E3D3B3A3836353324
:1006E00032302F2D2C2A292826252322FFAA7F5598
:1006F00040000101010101010101010202020202A7
:1007000002020202030303030303030304040404B9
:100710000404040505050505060606060607070781
:10072000070708080808090909090A0A0A0B0B0B38
:100730000C0C0C0D0D0D0E0E0E0F0F0F10101111D5
:100740001112121313141415151616171718181959
:10075000191A1A1B1B1C1D1D1E1E1F2020212222C0
:10076000232424252626272829292A2B2C2D2D2E03
:100770002F30313232333435363738393A3B3C3D1D
:100780003E3F404142434445464748494A4C4D4E0E
:100790004F50515354555658595A5B5D5E5F6162D4
:1007A00064656668696B6C6D6F7072737577787A63
:1007B0007B7D7E8082838587888A8C8E8F919395BE
:1007C00096989A9C9EA0A2A3A5A7A9ABADAFB1B3E2
:1007D000B5B7BABCBEC0C2C4C6C9CBCDCFD1D4D6C2
:1007E000D8DBDDDFE2E4E7E9EBEEF0F3F5F8FAFD64
:1007F000FF00DA0281FFD9F1DB20A4A62EAF00A012
:10080000C0D30000A1C8D30000AED580A81F408D82
:10081000142000643214643214783C1E1E140A053D
:100820001E001F00200021002200230024002500BC
:10083000260011241FBECFEFDAE0DEBFCDBF11E0EE
:10084000A0E0B1E0E0E7F4E402C005900D92AC3C1A
:10085000B107D9F725E0ACECB1E001C01D92A8309A
:10086000B207E1F70E94FB1A0C94F821C9CB8093E0
:10087000BF049093C00408958093C1049093C20470
:10088000089521E030E002C0220F331F8A95E2F77D
:100890008091C1049091C204822B932BEDCF21E073
:1008A00030E002C0220F331F8A95E2F72095309581
:1008B0008091C1049091C20482239323DDCF9330B1
:1008C000A0F5833090F5292F30E0F901EE0FFF1FDE
:1008D000E20FF31FE80FF11D51E0E1FD54E0E0FDF0
:1008E000550FE2FD529523E0F695E7952A95E1F73D
:1008F000EE0FFF1FEE0FFF1FE855FB4F20E030E02B
:1009000070E04191DF01CB01022E02C096958795E0
:100910000A94E2F78695880B8427852384278E9393
:100920002F5F3F4F2430310561F70895933080F5F4
:10093000833070F5292F30E0F901EE0FFF1FE20F31
:10094000F31FE80FF11D9E2F977023E0F695E795B2
:100950002A95E1F7EE0FFF1FEE0FFF1FE855FB4F43
:1009600040E050E080E0219130E0092E02C0369551
:1009700027950A94E2F72170042E01C0220F0A94F1
:10098000EAF7822B4F5F5F4F4430510561F70895BE
:1009900080E00895E091C8049091C704E91302C073
:1009A00080E008959F0157E0E59FF0011124E7538F
:1009B000FB4F5181561306C05081581303C0558117
:1009C000541305C02F5F3F4FF901E770E7CF81E077
:1009D00008958091C8042091C704281301C0089588
:1009E00001968770FACF9091C304809589238093F4
:1009F000C304282F277061F4891751F09091C50422
:100A000092FF06C086958695869549DF1092C304AD
:100A100008958091BC049091C604892B9091BD04E7
:100A20009115C9F0892B90911F01913021F490917B
:100A3000C40497FD11C096E020ED31E040E09150F4
:100A4000F90150812F5F3F4F51114F5F9111F7CF47
:100A500041111092BD0408959EE128ED31E0EECFE2
:100A60008095982F8091BC0489238093BC040895BD
:100A70007330B0F46330A0F4811115C0872F90E07B
:100A8000FC01EE0FFF1FE80FF91FE60FF11DEE0F3F
:100A9000FF1FE05EF74F85919591282F822F0895D3
:100AA00020E090E0FBCF21E0FCCF803E9105D1F12A
:100AB000C8F48133910509F481C048F48932910565
:100AC00009F471C08A32910509F47FC00895893311
:100AD0009105E1F082389105C9F08533910509F45B
:100AE0005DC00895843E9105D1F148F4823E9105A0
:100AF00031F1833E910541F181EE90E00895863E0B
:100B00009105C1F1873E9105F1F108952091C4044A
:100B1000237009F064C02091C50423FF14C089E24A
:100B200090E008952091C40420FD45C03091C50493
:100B300030FF09C024FD24C083EE90E00895209189
:100B4000C40422FDF7CF08952091C40422FD44C0BF
:100B50003091C50430FD43C024FFF5CF11C0209172
:100B6000C50421FFF0CF8091C40484FD09C087EE45
:100B700090E008952091C40423FFE5CF24FFF7CF30
:100B800080E090E008952091C40423FD2BC03091B3
:100B9000C50431FFE1CF84EE90E008952091C404B4
:100BA00025FFD1CFBCCF2091C40425FD1EC02091CC
:100BB000C50423FFC8CF89E390E008952091C404C1
:100BC00026FFC1CF8AE290E008952091C40426FF59
:100BD000BACF81E390E0089582EE90E0089580EE30
:100BE00090E0089586EE90E0089585E390E0089502
:100BF0009091C40492FF10C041E0282F247124304A
:100C000009F040E031E0282F2871283009F030E069
:100C1000431711F02CE0822793FF10C041E0282FEA
:100C20002471243109F040E031E0282F2871283167
:100C300009F030E0431711F02CE082273091C50411
:100C400030FF10C051E0282F2171213009F050E011
:100C500041E0282F2871283009F040E0541711F0A6
:100C600029E0822731FF10C041E0282F2171213176
:100C700009F040E031E0282F2871283109F030E0F8
:100C8000431711F029E0822794FF02C083FD877E7D
:100C900008950F931F93CF93DF9307DFEC01D235B5
:100CA00008F04DC0D03508F0C3C0C03ED10530F5C6
:100CB000CD3CD10508F09AC0C83AD10578F4C53AC0
:100CC000D10508F090C0C130D10599F1CE0104974B
:100CD000813A910570F1C0E0D0E02BC0CE01885A76
:100CE00091094B97C0F7C85AD0E0CC0FDD1FC15A0D
:100CF000DE4F0990D881C02DD4641BC0D03490F44D
:100D0000D03208F0A8C0C83ED10598F0CE0191506D
:100D10009F3108F78D2F6CDF082F8C2F90E0C5DEF8
:100D2000902B54C08C2F90E0C0DEDF70C82FD92BE1
:100D3000D06ACE01DF91CF911F910F910895C038F5
:100D400082E5D807B8F5C03682E5D80708F056C066
:100D5000C03482E5D807C8F4C03282E5D80708F06D
:100D600047C08C2F8695869520E2829FC001112472
:100D7000C37021E030E002C0220F331FCA95E2F7B2
:100D8000E901C82BD92BDD68D4CF8C2F86958695A9
:100D9000877020E2829FC0011124C37021E030E0FF
:100DA00002C0220F331FCA95E2F7E901C82BD92BE5
:100DB000DC68BFCFC03C82E5D80750F48C2F8F7120
:100DC000C03AD24580F5982F84EF906AEC01B1CFFC
:100DD000CE01805C9245809708F07DCFDC2FDF71DB
:100DE000C0EFD06AA6CFA497D064A3CFD065A1CF1F
:100DF0008C2F8F71D82FC1EFD06A9BCF8C2F869507
:100E00008695877020E2829FC0011124C37021E083
:100E100030E002C0220F331FCA95E2F7E901C82B68
:100E2000D92BDA6886CFE4DEC0E0D82FD06281CF3C
:100E30008C2F8F71DDDE93E0CC0FDD1F9A95E1F7EB
:100E4000DF70282F84FF04C090E1899F9001112456
:100E5000C22FD0696ECF8D2F8F71CADE082F8C2FD5
:100E600090E023DE902BEC01E1CFCF92DF92FF9256
:100E70000F931F93CF93DF936C010091C1041091E6
:100E8000C2048091BF049091C004082B192BCFE0BD
:100E9000D0E081E090E00C2E02C0880F991F0A94E8
:100EA000E2F780239123892B61F4219790F7F12CAD
:100EB0008F2DDF91CF911F910F91FF90DF90CF90F9
:100EC0000895FC2EB6018C2FD3DDE3DE019769F384
:100ED000EFCF1F93CF93DF93FC012581C081D18198
:100EE000CE01211571F0611561F0BFDF182F682F59
:100EF000CE01E5DCBE01812FBBDDDF91CF911F91DB
:100F0000089514DD182FF6CFCF93DF93EC01ADDFFA
:100F1000BE01AEDDBEDEDF91CF910895FC012481DC
:100F2000211599F080819181EFDF282F92959F7094
:100F3000963099F060F4925F9F70923030F4203FC9
:100F4000B1F038F481E0283E38F080E008959A5FEF
:100F5000F3CF81E0243FC9F7089591E0213F09F0E4
:100F600090E081E0283E08F080E0892B089581E040
:100F7000089580E00895F894E82FE295EF70F0E08E
:100F800041A18F7021E001C0220F8A95EAF7922FCC
:100F90009095942391A392A1822F892B82A3789478
:100FA00008950895CF92DF92EF92FF921F93CF930F
:100FB000DF93462F172FE82FF0E0EF50F94F711114
:100FC0000CC0E4918E2F7E2F6E2FDF91CF911F9159
:100FD000FF90EF90DF90CF900895F491EF2F86E08F
:100FE000689FE00111242FEF30E0CE01B9010E948B
:100FF0002121DB01CA01880F991F65E56A9FA001C5
:101000006B9F500D1124841B482F440F480FC901BA
:10101000811B9109F89F7001F99FF00C11248F2D0D
:10102000149FB0011124672F70E06901C61AD70A16
:10103000B601F69F6001F79FD00C1124A330B105D3
:1010400049F1B901641B7109AB01149FB001159FEF
:10105000700D1124672F70E0261B370BF29FA00143
:10106000F39F500D1124752FCC3FD34050F4A13085
:10107000B105A1F0129709F0A7CFEF2D852F7F2F93
:10108000A3CFA430B10569F0169709F49DCF7F2D49
:101090008D2D9ACF7D2DEF2D8F2F96CF7F2FED2D7C
:1010A00093CFE52F7F2DF8CFCF93762FC22F682FC8
:1010B000842F78DF472F282F8C2F90E07DD1CF9180
:1010C0000895CF93DF938091B40480FD0BC0C0E0FE
:1010D000D0E020E040E060E0CE016ED12196C63045
:1010E000D105B9F798D3DF91CF910895FF920F936F
:1010F0001F93CF93DF93182F062FF42E8091B40403
:1011000080FF0CC0C0E0D0E02F2D402F612FCE011A
:1011100053D12196C630D105B9F7D3DFCDB7DEB7AD
:10112000E5E00C945E21762F9091B40490FF08C006
:10113000682F842F37DF962F672F482F892FD6CF20
:101140000895CF93DF93EC01E4EBF4E043816281F7
:101150008C81E9DF8C818F5F8C83DF91CF91089543
:10116000CF93DF93EC01EC81F0E0E451FA4F44912E
:10117000E4EBF4E062818181D6DF8C818F5F8C8328
:10118000DF91CF910895FF920F931F93CF93DF9339
:10119000EC01F12C00E010E08C8198014091B70443
:1011A0006091B6048F0D80DF0F5F1F4F8AE2F80E4B
:1011B0000630110589F785DF8C819A8190FF07C081
:1011C0008F5F8C83CDB7DEB7E5E00C945E21815054
:1011D000F8CFEF92FF920F931F93CF93DF93FC0111
:1011E0008281EE24E39480FF02C0EE24EA94C0E002
:1011F000D0E020E040E060E0CE01DED004E010E08E
:10120000F12C809147028F0D87308CF166E00E94AF
:101210006C21892F082E001C00088C170D0679F40C
:101220004091B7040403A0011124559547955595A5
:1012300047959E016091B6048091B50435DFFE0CA0
:1012400001501040F1F62196C630D10591F639DFF4
:10125000809147029E2D913071F4811591F081505B
:1012600080934702CDB7DEB7E6E00C945D2187FF9F
:10127000D1CF8A5FCFCF90E00196BE010E94792145
:10128000EFCF85E0EDCF0F931F93CF93DF93EC016A
:1012900020E030E06091B6048091B5049C81890122
:1012A0000F5F1F4F233031053CF4911541F0409101
:1012B000B704FADE9801EECF4091B704911140E0F7
:1012C000F3DE98010630110529F7FBDE8C810196CB
:1012D00081708C83DF91CF911F910F9108950F93AF
:1012E0001F93CF93DF93A0914A02B0914B029D01CF
:1012F0002C543240BD016C547040613042E07407A0
:1013000010F060E072E04091480250914902FC0107
:1013100001E010E02617370748F040934802509349
:101320004902DF91CF911F910F91089584919D9172
:10133000891789F0ED018A93C901C5E096958795D3
:10134000CA95E1F7E80102C0CC0FDD1F8A95E2F7EC
:10135000CE014C2B592B2F5F3F4F3196DBCF81E3D2
:10136000611101C084EFE82FE295EF70F0E041A138
:101370008F7021E001C0220F8A95EAF7922F909595
:10138000942391A392A1822F892B82A3089521E314
:10139000611101C024EFE22FE295EF70E05EF0E012
:1013A000808190E02F7002C0959587952A95E2F78D
:1013B000817008956E9A0895FC01EE0FFF1FE80FEB
:1013C000F91FED5EFD4F6183408322830895E09114
:1013D0009E04F0919F04309739F00190F081E02D48
:1013E000309711F00995089580E00895A3E0B0E0EA
:1013F000ECEFF9E00C94452120910F02309110029E
:1014000028173907B1F080930F0290931002E091F2
:101410009E04F0919F04309761F00084F185E02DE7
:10142000309739F023E029838A839B83CE0101968C
:1014300009952396E2E00C946121A3E0B0E0E3E299
:10144000FAE00C94452120910D0230910E022817EC
:101450003907B1F080930D0290930E02E0919E0443
:10146000F0919F04309761F00084F185E02D309772
:1014700039F024E029838A839B83CE010196099564
:101480002396E2E00C94612190911F01913099F034
:10149000A0EDB1E0EFEF90E02C91821759F011969A
:1014A000EF3F19F4211101C0E92F9F5F9630A1F79A
:1014B000EF3FC1F408959091C40497FFE9CFE82F5E
:1014C000E695E695E695803FA8F7F0E0EA52FE4FF4
:1014D000877021E001C0220F8A95EAF78281822B72
:1014E00082830895FE2FFF0FFF0BE253FE4FF8CFCC
:1014F00090911F01913021F49091C40497FD0CC08C
:10150000E0EDF1E09191891302C0DF011E9291E0BC
:10151000E63DF907B9F70895E82FE695E695E695D3
:10152000803FC8F7F0E0EA52FE4F9DEF81FD97EF54
:1015300080FF959582FD929582818923828308950B
:1015400080911E0108952FB7F8946091090270915F
:101550000A0280910B0290910C022FBF089587E739
:1015600097E7809300089093010888E19AE00FB60E
:10157000F894A895809360000FBE90936000FFCF11
:101580000895FC012091FF013091000226173707D2
:1015900048F06115710529F49091E8009E779093C9
:1015A000E8009B0190E02115310541F4911106C03E
:1015B0008091E80082FF32C080E008958091580455
:1015C0008115C1F18530C1F18091E80083FD30C003
:1015D0008091E80082FDECCF8091E80080FFE3CFAE
:1015E0008091F3004091F200582F2115310519F038
:1015F0004830510558F091E04830510509F090E02D
:101600004091E8004E774093E800CDCF81918093E0
:10161000F100215031094F5F5F4FE7CF80915804AF
:10162000811541F0853041F08091E80083FFC0CF03
:1016300081E0089582E0089583E00895982F9093C3
:10164000E900891771F07091EC002091ED00509144
:10165000F00021FD09C09F5F973089F78093E90072
:101660000895762F242F50E03091EB003E7F309389
:10167000EB003091ED003D7F3093ED003091EB00B9
:1016800031603093EB007093EC002093ED005093A9
:10169000F0002091EE0027FDDECF08958091F90142
:1016A00087FF13C08091E80082FF06C08091E800A8
:1016B0008B778093E8000895809158048111F2CFD0
:1016C0000895809158048115D9F38091E80080FF36
:1016D000F8CF8091E8008E77ECCF2091E400309134
:1016E000E50095E6A9012091EC00822F817020FF92
:1016F00006C08091E80080FF06C080E00895209138
:10170000E80022FD1AC080915804811589F08530C7
:1017100089F08091EB0085FD0FC02091E4003091AD
:10172000E50042175307F9F29150E1F684E008957D
:1017300082E0089583E0089581E00895CF93DF93D8
:10174000C8EDD0E088818F7E8883E7EDF0E080816E
:101750008160808384E082BF81E08093F80188818A
:101760008E7F8883E2EE10821092DA00A1EEB0E064
:101770001C9288818F77888388818068888388819C
:101780008F7D888319BC109258041092F701109233
:1017900057041092F601A0EE8C918B7F8C93888178
:1017A0008160888342E060E080E048DFA1EEB0E045
:1017B0008C918E7F8C93E2EEF0E08081816080835B
:1017C000808188608083E0EE80818E7F8083888145
:1017D00080618883DF91CF910895E8EDF0E080810A
:1017E0008E7F80831092E2001092DA001092E10066
:1017F000A0EEB0E08C9181608C9380818F778083A4
:1018000019BCA7ED8C918E7F8C9380818F7E808315
:101810001092F80108953EB13F7B2EB120644FB77E
:10182000F89483E192E0FC010196508168E02EB9C2
:10183000000000C057FF3EB9550F000000C000C0B7
:1018400000C03EB900C06A9591F752E08532950715
:1018500051F74FBF8FE594E00197F1F700C000000A
:1018600008950F931F93CF93DF93EB018A0190911B
:101870005804943059F58093E9008FEF9091E80077
:1018800095FD06C095ED9A95F1F700008150B1F7EE
:101890008091E80085FF1AC020DF811112C080917D
:1018A000E80085FD06C08091E8008E778093E8000F
:1018B000F3CF88818093F1000150104011F0219600
:1018C000EECF8091E8008E778093E800DF91CF9192
:1018D0001F910F910895CF93DF93EC0148E050E002
:1018E000BC0181E0BEDF88E0FE01A1E0B2E0019032
:1018F0000D928A95E1F7DF91CF91089540E250E093
:10190000BC0182E0AECF43E050E0BC0182E0A9CF51
:101910009091C50492FB222720F9281771F080FBD3
:1019200092F99093C5046091C4047091C50484E059
:1019300090E00E94E42182E056C8089580911F0142
:10194000813061F58091C40487FF28C062D88093FC
:10195000D70140E250E06EE774E086ED91E00E942E
:10196000AB21892BD1F080E2E6EDF1E0AEE7B4E007
:1019700001900D928A95E1F7E0919E04F0919F0409
:10198000309759F00480F581E02D309731F086E0F2
:101990008093D60186ED91E0099508953AD8809319
:1019A000CE0148E050E060EA74E08EEC91E00E94E5
:1019B000AB21892B91F388E0EEECF1E0A0EAB4E0F2
:1019C00001900D928A95E1F7E0919E04F0919F04B9
:1019D000309719F30280F381E02D3097F1F28EEC0D
:1019E00091E0DACFCF93C82F8115C1F08450813AAE
:1019F00070F580911F01813021F48091C40487FD2E
:101A00000FC0E0EDF1E08081C817E9F0319681E088
:101A1000E63DF807C1F78C2F37DD90DFCF910895B1
:101A2000EC2FE695E695E695F0E0EA52FE4F8281CE
:101A300090E04C2F477021E001C0220F4A95EAF751
:101A40008223892B41F38C2F53DD78DFE4CF8C2F59
:101A5000805E883060F4C77081E001C0880FCA954D
:101A6000EAF7C091BC04C82BC093BC04D6CF8C2F1E
:101A7000855A833028F48C2F8452990BB7DCCECF53
:101A8000C85ACB3158F6EC2FF0E0EE0FFF1FEB56A3
:101A9000FE4F80819181D1DCC1CF811511F1982F4A
:101AA0009450913A10F424DD49CF982F905E9830ED
:101AB00058F4982F81E091FD84E090FD880F92FD0D
:101AC00082950E943005F0CF982F955A933018F4E4
:101AD00080E090E08BCC885A8B3118F480E090E065
:101AE000ACCC08951F93CF93DF93182FEB017ADFCF
:101AF000209731F4812FD1DFDF91CF911F9108958D
:101B00008FE99FE00197F1F700C000002197F0CF27
:101B1000811531F09091BC04982B9093BC040ECFAA
:101B20000895811519F00E94300508CF089510928C
:101B3000BC0480911F01813099F48091C40487FF17
:101B40000FC0E8EDF1E08EE111928A95E9F780E0AF
:101B500090E04CDC80E090E070DC1092C604EECEA9
:101B6000E0EDF1E086E0F0CFE2DF88E19AE00FB649
:101B7000F894A895809360000FBE90936000FFCF0B
:101B8000AAE2B0E0E6ECFDE00C94442189EF91E09C
:101B9000FC0101962091F100208322E08130920720
:101BA000B9F78091FA01893009F457C0C8F482303E
:101BB00009F4B2C0833009F482C0813081F1809190
:101BC000E80083FFE6C08091F9019091FA019A3014
:101BD00008F0DFC0E92FF0E0E650FE4D0C948C21B8
:101BE0008A3009F489C08B3051F78091F901813234
:101BF00031F78091FD019091FE01892B01F78091D1
:101C0000E800877F8093E80049DD81E09091FB0147
:101C1000911101C080E080931F0189DFD0CF8091B6
:101C2000F901813A61F68091E800877F8093E800AE
:101C30008091FD019091FE01892B59F060E080E0D8
:101C400090E070E09EDC8091E8008B778093E80064
:101C5000B6CF68E081E092E0F4CF8091F901813263
:101C600009F0ADCF8091FD019091FE01029708F03F
:101C7000A6CF8091E800877F8093E8008091E800FC
:101C800082FF18C02091F3008091F200922F0297FA
:101C900031F48091F100813011F0863021F480918F
:101CA000F10080931E018091E8008B778093E8001B
:101CB000F5DC85CF809158048111E0CF80CF8091F1
:101CC000F901813A09F07BCF8091FD019091FE01ED
:101CD000892B09F074CF8091E800877F8093E8001A
:101CE0008091E80080FFFCCF80911F018093F1007C
:101CF0008091E8008E77DACF8091F901813209F086
:101D00005ECF8091E800877F8093E800C7DC8091F8
:101D1000FC0180931D0153CF8091F901813A09F0B4
:101D20004ECF8091E800877F8093E8008091E800A3
:101D300080FFFCCF80911D01D9CF803889F0823897
:101D400041F58091FD018F70873018F58093E9008F
:101D50008091EB0085FB882780F91092E90006C08E
:101D600080915704880F9091F601892B9091E8009B
:101D7000977F9093E8008093F1001092F10080919A
:101D8000E8008E7723C0811116C08091FB0181305D
:101D900009F18091E80083FF0AC08091E800877F05
:101DA0008093E8008091EB0080628093EB00AA961C
:101DB000E3E00C946021823061F78091FB01811592
:101DC00079F01092E9008091E800877F8093E80025
:101DD00065DCDFCF933009F080E080935704F1CFCA
:101DE0008091FD018F70282F2150263090F680932E
:101DF000E9002091EB0020FFE4CF933031F4809193
:101E0000EB0080628093EB00DCCF9091EB0090615F
:101E10009093EB0021E001C0220F8A95EAF720930E
:101E2000EA001092EA008091EB008860EBCF81110C
:101E3000B0CF8091FB018F77182F8091E3008078DD
:101E4000812B8093E3008091E800877F8093E800F6
:101E500025DC8091E80080FFFCCF8091E300806862
:101E60008093E30083E0111101C082E08093580465
:101E700090CF8058823008F08CCF2091FB013091B8
:101E8000FC012C3D83E0380789F583E08A838AE2F0
:101E900089834FB7F894DE01139620E03EE051E2CB
:101EA000E32FF0E050935700849120FF03C0829508
:101EB0008F703F5F8F708A30B8F0895C8D931D9270
:101EC0002F5F243169F74FBF8091E800877F8093AF
:101ED000E8006AE270E0CE01019653DB8091E800F1
:101EE0008B778093E80055CF805DE8CF832F90E01B
:101EF0008330910519F160F48130910509F46CC0CB
:101F00008230910509F045CF8BE3EFE5F1E029C080
:101F10002091FD013091FE018132910509F453C0F9
:101F20008232910509F035CF2130310508F45CC0CB
:101F300009F02FCF8FE6ECEAF0E013C0822F90E09B
:101F4000213099F182309105B9F1009709F021CF44
:101F5000E4EEF1E0E4918E2FE4EEF1E0009709F475
:101F600018CF2091E800277F2093E8002091FF01FF
:101F7000309100028217930708F49C0140E021157C
:101F80003105B1F5411134C08091E80082FDA6CF42
:101F900080915804811509F4A1CF853009F49ECFB2
:101FA0008091E80083FFF0CF99CFE6ECF1E0E49177
:101FB0008E2FE6ECF1E0D2CFECEAF1E0E4918E2F47
:101FC000ECEAF1E0CBCF2130310550F009F0E1CE61
:101FD00089E0EAE8F1E0C5CF82E1EAE9F1E0C1CFCA
:101FE00089E0E1E7F1E0BDCF84E4EBE1F1E0B9CFD6
:101FF00080915804811509F471CF853009F46ECFB2
:102000008091E80083FD6ACF8091E80082FDBCCF1B
:102010008091E80080FFB3CF4091F3008091F200FF
:10202000942F2115310519F08830910550F041E0C9
:10203000089709F040E08091E8008E778093E800EF
:102040009ECF44914093F100319621503109019681
:10205000E8CF803809F09DCE8091E800877F80939B
:10206000E8008091F7018093F10089CE811191CE33
:102070008091FB01182F823008F08BCE8091E80010
:10208000877F8093E8001093F70108DB111599F022
:1020900084E08093580442E061EC81E0CFDA42E2D0
:1020A00061EC82E0CBDA80915804843051F482E014
:1020B000809320016ECE8091E30087FDE9CF81E01F
:1020C000E8CF81E0F5CF8F929F92AF92BF92CF92EF
:1020D000DF92EF92FF920F9388E090E00E94C02180
:1020E0004B015C016093B4049092B5048093B604F4
:1020F000B092B7041092B8041092B9041092BA04C6
:102100001092BB0483E290E00E94B8219401A501E3
:102110008092B4043093B504A092B6045093B704EF
:102120008093B8041092B9041092BA041092BB04C0
:102130000F91FF90EF90DF90CF90BF90AF909F9066
:102140008F9008950F93CF93DF93C4EBD4E0488131
:1021500059816A817B8188E090E00E94DC216C815A
:10216000262F60E070E0CB01622F83E20E94CA213B
:10217000DF91CF910F91089585E08093B404109280
:10218000B5048FEF8093B6048093B7041092B8041F
:1021900084EB94E0D7CF8091B804833018F48F5F3C
:1021A0008093B80484EB94E0CDCF8091B80481157E
:1021B00019F081508093B80484EB94E0C3CFA0E081
:1021C000B0E0E5EEF0E10C943D21D82FB62E042FBF
:1021D000A22E9091B40490FF23C0192F1695169546
:1021E000E12FF0E0E75DFE4F80818093B2049C7F99
:1021F0009430D9F46D2F7B2D842F0E94D207962F17
:10220000672F482F892F0E947608D093B504B0928B
:10221000B6040093B704A11419F084EB94E092DFA4
:10222000CDB7DEB7EAE00C945921823019F4009161
:10223000B704EBCF863019F4D091B504E6CF8930DE
:10224000D9F3853111F71551E12FE695F0E0E4510E
:10225000F94FC4916D017601C60166E070E00E94FD
:102260002121862F8D0F10FF02C08D2F861B970115
:10227000402F6B2D0E9454088FEFE81AF80ACC0EFD
:10228000D11C86E0E816F10439F70E946108BDCF41
:10229000E4EBF4E0818121E043816281885F8FCFAC
:1022A000E4EBF4E0818121E043816281885087CFB3
:1022B000E4EBF4E0628121E1620F08F46FEF21E0CA
:1022C000438181817CCFE4EBF4E0628121E1621BF8
:1022D00008F460E021E04381818171CFE4EBF4E018
:1022E000438121E1420F08F44FEF21E062818181B7
:1022F00066CFE4EBF4E0438121E1421B08F440E0C7
:1023000021E0628181815BCFAB0124E630E0BC013A
:1023100088E70E948D209C0181E0232B09F080E05A
:10232000089580914E048115E9F00DD9DC01CB01AF
:10233000805A9541AF4FBF4F80934F049093500404
:10234000A0935104B093520480914D0481110AC0AE
:1023500062E070E08AEE95E0D7DF811519F081E048
:1023600080934D04089580914E04811561F0809111
:102370004D04811541F062E070E088EE95E0C4DF25
:10238000811110924D0408954F925F926F927F9247
:102390008F929F92BF92CF92DF92EF92FF920F9314
:1023A0001F93CF93DF9380914E04811509F4FDC0F4
:1023B0008CE492E080934A0290934B028091250234
:1023C000909126029C012F5F3F4F2093250230936E
:1023D00026028F35914054F08091000191E08927C9
:1023E0008093000110922502109226028091000134
:1023F000811509F4EAC088EE93E00E946F0980918C
:10240000480290914902892B09F4B5C080914C048F
:102410008111B1C086DF80914802909149020097F6
:1024200009F4A9C0C82FC170D0E010E080FD0FC032
:1024300041E050E01F5FEA01012E02C0CC0FDD1F1A
:102440000A94E2F79E0128233923232B99F38091E4
:10245000540480FFBDC0912F990F990F990F392F08
:10246000395F80E023E0909303018093060130936D
:1024700004012093070124E630E047E050E061E0EA
:1024800071E088E70E944320892B09F074C080E244
:10249000189FA00111248091540480FFABC0E7E293
:1024A000F2E080E211928A95E9F735E2632E31E09D
:1024B000732E81E291E04C0169E271E0D301ED916C
:1024C0003D01D4010D914D01040F152F111DF0E0B8
:1024D000E95DFD4F80E090E027E0B22EB81ACC24F1
:1024E000C394082E01C0CC0C0A94EAF79801245B2F
:1024F0003D4F2901E12CD201FD902D01FC202B2D17
:102500002E19277030E0AF2D022E01C0AA0F0A94B9
:10251000EAF7DA2E3195219531092770332701C06A
:10252000F6942A95EAF7DF282081D22AD082E39414
:102530002E2D283001F7019631968830910561F6ED
:102540006615770509F0BACF04E610E020E247E20D
:1025500052E060E488E70E94D320892B61F4C095A3
:10256000D0958091480290914902C823D923C09305
:102570004802D093490280914D048115B1F00E9428
:10258000A30AC0914F04D0915004E0915104F091FE
:102590005204DC01CB018C1B9D0BAE0BBF0B8F3F9C
:1025A0009F4FAF4FBF4708F4DEDEDF91CF911F9101
:1025B0000F91FF90EF90DF90CF90BF909F908F9002
:1025C0007F906F905F904F90089588EE91E015CFC7
:1025D00020E2129FC0011124880F492F441F550B80
:1025E0005195242F912F9295990F9076392F315E26
:1025F000842F39CF445B5D4F04E610E020E230E0E9
:10260000A8CF1F921FB61F9211248F939F93AF9351
:10261000BF9380915604811113C08091090290915B
:102620000A02A0910B02B0910C024196A11DB11DAE
:102630008093090290930A02A0930B02B0930C02BC
:10264000BF91AF919F918F911F901FBE1F901895C2
:102650002FB7F8948091090290910A02A0910B0281
:10266000B0910C022FBF0895CF93DF93EC01F0DF00
:102670008C1B9D0BDF91CF910895A3E0B0E0E3E4C4
:10268000F3E10C943E21FE013196DF0183E01D92BF
:102690008A95E9F789E5E82E81E0F82E8F01CE2EA4
:1026A000B12EF70181917F018F3F09F43EC0F8946C
:1026B000E82FE295EF70F0E021A18F7041E001C0BA
:1026C000440F8A95EAF7922F942B91A392A1842F1D
:1026D0008095892382A3789400C0ECE5F1E031E095
:1026E000D12C21912F3F79F0A22FA295AF70A05E3F
:1026F000B0E08C9190E02F7002C0959587952A9557
:10270000E2F780FF39C080E0D82A330F81E0EF354F
:10271000F80739F7F70182918F3F11F00E94BB074C
:1027200080EA8A95F1F7F801D0820F5F1F4F8CE5A0
:10273000E81681E0F80609F0B4CF43E050E06C2DD4
:102740007B2D89E794E00E94AB21892BB9F0898128
:102750009A81AB818093790490937A04A0937B044F
:1027600081E08093750474DF809373049093740404
:102770002396E9E00C945A21832FC6CF80917504EB
:102780008115B1F3009173041091740461DF801B13
:10279000910B059768F343E050E069E774E086E742
:1027A00094E00E94AB21892B61F080917904909193
:1027B0007A04A0917B048093760490937704A0938D
:1027C000780410927504D4CF9091B40490FF2CC07B
:1027D000811559F1803258F58F73880F880F9091C9
:1027E000B4049370892B8093B404611519F084EBC1
:1027F00094E0A8DC6091B4046695669570E04BE0C7
:1028000050E088E091E00E949E21892B91F0109287
:10281000B30481E08093630420E04091B7046091A9
:10282000B6048091B504CBCC089581E0D6CF8FE17A
:10283000D4CF81E08093B3040BDF80936004909346
:102840006104E7CF8091B404869586958F5F8032CE
:1028500008F081E061E0B8CF8091B4048695869558
:10286000815009F48FE161E0AFCFFF920F931F9386
:10287000CF93DF93C62FD42FF22E8115A1F0609352
:10288000B004E6DE809311029093120281E0C1FD54
:1028900084E0C0FD880FC2FD82953AD9CDB7DEB77E
:1028A000E5E00C945E218091B00468132FC0009184
:1028B000110210911202CCDE801B910B883C910515
:1028C00028F51D2F105ECD1791F0C77001E0802F05
:1028D00001C0880FCA95EAF724D9183040F48D2F2B
:1028E000877001C0000F8A95EAF7802F11D960E048
:1028F00070E08F2DF7D881E0D1FD84E0D0FD880F06
:10290000D2FD8295183050F60CD9C8CF81E0C1FDB8
:1029100084E0C0FD880FC2FD8295F6CFA0E0B0E054
:10292000E4E9F4E10C943F217C01FC0184818115F0
:1029300021F161E0C7010E946907EC01F70185817F
:10294000FE01E851FC47E730F10598F5EC5FFD4DDD
:102950000C948C2126E241EE61EE87DF8091C30466
:10296000877059F0F7018581811539F08091C50490
:1029700082FF03C082E00E94F304CDB7DEB7E8E037
:102980000C945B2127E245EE65EEE7CF26E241EEAF
:1029900060EEE3CF27E245EE64EEDFCF26E241EEC4
:1029A00062EEDBCF27E245EE66EED7CF28E241E0CC
:1029B000EBCF811509F4C9C31092B0049E013057C2
:1029C0002332310508F0CFC384E090E00E94C52196
:1029D0008093C4049093C504FE01E150F047E232B5
:1029E000F10520F4E55FFD4D0C948C218091C40429
:1029F00081608093C4046091C4047091C50484E034
:102A000090E00E94E42193D8A9CF8091C50488600A
:102A10008093C504F0CF8091C4048260EACF809196
:102A2000C4048460E6CF8091C4048860E2CF8091C2
:102A3000C5048160EDCF8091C5048260E9CF8091AB
:102A4000C4048061D6CF8091C4048062D2CF8091CB
:102A5000C4048064CECF6BD88091C4048068C9CF91
:102A60008091C4048C60C5CF8091C5048360D0CFB1
:102A70008091C4048E7FBDCF8091C504877FC8CF6D
:102A80008091C4048D7FB5CF8091C4048B7FB1CF7A
:102A90008091C404877FADCF8091C5048E7FB8CF6D
:102AA0008091C5048D7FB4CF8091C4048F7EA1CF67
:102AB0008091C4048F7D9DCF8091C4048F7B99CF7A
:102AC00036D88091C4048F7794CF8091C404837FDB
:102AD00090CF8091C5048C7F9BCF9091C404892FA7
:102AE0008B7F92FF8460877F92FF886082CF809186
:102AF000C504982F909590FB80F990FB81F988CFC1
:102B00009091C404892F8F7B96FF806472CF0FD879
:102B10009091C404892F97FB87F980586ACF61E0B0
:102B20008EE090E00E94CA2166CF60E0F9CF9091DC
:102B3000C404892F8F7E94FF80615BCF9091C40481
:102B4000892F8E7F90FF816054CF9091C504892F8B
:102B5000877F93FF88605CCF89E202C39272FE0197
:102B6000E052F847EB30F10508F043C0E35DFD4D5E
:102B70000C948C218091B40480FF0BC08E7F8093D5
:102B8000B40484EB94E0DEDA1092B3040E9461088E
:102B9000E5CE81608093B40461E08695869514DE6D
:102BA000DDCE911521F058DED9CE9115E1F34ADE44
:102BB000D5CE911521F074DBD1CE9115E1F368DB10
:102BC000CDCE911521F07FDBC9CE9115E1F370DBFD
:102BD000C5CE911521F08DDBC1CE9115E1F37EDBE1
:102BE000BDCE911521F0E1DAB9CE9115E1F3D3DA3A
:102BF000B5CE9E01205E324520323105A0F4811110
:102C000024C0CF7181E090E002C0880F991FCA955F
:102C1000E2F7EC01682F83E090E00E94CA21CE0128
:102C20000E9437049BCE811581F1CB359CE7D907F3
:102C300011F1CC359CE7D90799F0CA359CE7D90743
:102C4000C1F0C1309CE7D907F1F0C3309CE7D90748
:102C5000A1F0C115DC47C9F40E94970D0E94AF0A8C
:102C60008091C504002482FF0394802D0E94880C6B
:102C700075CE81E0FBCF80E0F9CF6FEF7FEF80E092
:102C800090E00E94E4210E94B40DF70100811181BF
:102C9000811509F45AC0C8010E943507C82F682F52
:102CA000C8010E945F04B8018C2F0E9438050E9461
:102CB0004906D82FC92FF7010581C680C2948FE03D
:102CC000C8228091C304877001F1D02E0115F1F064
:102CD000892F807F803461F08D2F805E8830A8F04E
:102CE000892F807E803221F4D23078F0C11469F0CF
:102CF0008091C50482FF09C082E00E94F3048091A4
:102D0000C3048770DD24D3948111D12C8C2F82953C
:102D10008F70883009F407C1B8F58430D8F4823058
:102D200008F443C01C2F1F70C07FC03211F01295F1
:102D3000107FD13008F471C009F4BAC0011509F44C
:102D4000C5C0C11409F487C047C0C8010E949604D9
:102D5000C82FA9CF09F4CBC0D11409F41BC18091AD
:102D6000C30480FD17C1F701158286958695869567
:102D70000E944104C701D2DD8091C30486958695E7
:102D800086950E944F0406C1893009F45BC18A5FB1
:102D90008F70823008F7D23F09F065C18C2F8F7198
:102DA00001115EC10E944104F3C01C2F1F70C0318D
:102DB00010F01295107F0115B9F0111569F08D2FE3
:102DC000805E883010F0D11109C08091BC04812B45
:102DD0008093BC040E949E0C8D2F2FC08091C6044E
:102DE000812B8093C604F6CF8D2F0E944D0D1115B7
:102DF00009F4B2CF8D2F805E883010F0D11104C05D
:102E0000812F0E94300506C010958091C604812351
:102E10008093C6040E949E0C9FCF8091C50482FDC2
:102E200016C0011569F0111539F08091BC04812B91
:102E30008093BC040E949E0C80E00E94F20C8CCF18
:102E400080E00E944D0D111509F486CFD9CF0115F0
:102E5000A9F0C11004C0812F0E94880D7DCF8C2D58
:102E6000813009F079CF8091BD04912F98231917F3
:102E700009F472CF812B8093BD046ECFC1106CCF4B
:102E8000812F0E94910D9091BD04812F892329F0FB
:102E9000812F809589238093BD048091BE04912F5A
:102EA000982309F459CF109518231093BE0454CFDA
:102EB0008C2D011521F0863008F04ECFCCCF853017
:102EC00008F04ACF812F0E94910D46CFC114D1F353
:102ED000D93349F48FEF97EE23E0815090402040A2
:102EE000E1F700C000008D2F0E944D0D35CF8C2FD3
:102EF000869586958370813060F009F02DCF8D2FF7
:102F00009C2F9370011102C080E090E00E941D0A86
:102F100023CF8D2F9C2F9370011102C080E090E091
:102F20000E94F60919CF8C2F837009F046C0011159
:102F30002FC04D2F429546954770440F440F2D2FBB
:102F40002F7030E0042E02C0220F331F0A94E2F7E4
:102F500080E090E0D4FF09C08FE090E002C0880FCD
:102F6000991F4A95E2F780959095C695C695C370CE
:102F7000C230D1F0C330A9F04091BF045091C004D9
:102F8000C13069F0822B932B842395230E94370450
:102F90000E94E70960E0C7010E946907EECC242B7C
:102FA000352B822B932BF2CF822B932B2091BF04B6
:102FB0003091C00482279327E9CF011591F1C0FF1A
:102FC000E7CF4D2F429546954770440F440F2D2F64
:102FD0002F7030E0042E02C0220F331F0A94E2F754
:102FE00080E090E0D4FF09C08FE090E002C0880F3D
:102FF000991F4A95E2F780959095C695C695C3703E
:10300000C230B9F0C33091F04091C1045091C20474
:10301000C13051F0822B932B842395230E943C04D2
:10302000B7CF823070F6B4CF242B352B822B932B65
:10303000F5CF822B932B2091C1043091C2048227BB
:103040009327ECCFCF70011539F08C2F0E944104EB
:103050008D2F0E94880D9CCF8D2F0E94910D8C2F5B
:103060000E944F0495CF70F4D03FC9F0D13F91F04A
:10307000011509F456C0C11409F450C08D2F0E94E7
:10308000F20C86CFD33F19F1D43F91F79091C5044C
:1030900092FD2BC08C2F8F71011511F383CE8C2DD7
:1030A000011599F0853008F073CFCF7181E090E081
:1030B00002C0880F991FCA95E2F7EC018091C10404
:1030C0009091C2048C279D27A9CF8630ECCF80E059
:1030D00090E0011509F4A2CFCF7181E090E002C029
:1030E000880F991FCA95E2F799CF011561F08C2FCF
:1030F0008F7192FF57CE982F990F990F990F936068
:103100009093C3044FCE81E00E94F3048C2D823053
:1031100008F43ECF82E00E94F3043ACF8C2F8F71E7
:1031200041CEC11479F0D93349F48FEF97EE23E003
:10313000815090402040E1F700C000008D2F0E9498
:103140004D0D26CF8C2F8F718BCFC6319CE7D907C1
:1031500009F04FCD8091B104811509F4FDCC85E3D0
:103160000E94780A14C09091BC04C6312CE7D207A3
:1031700009F0F4CC9A7A81E0911101C080E080934B
:10318000B10485E3911101C089E20E94440A0E94C2
:103190009E0CE4CB80910705803170F48091060588
:1031A000811551F0E091C8042091C70430910205C7
:1031B000409101052E1301C00895BF0187E0E89FEB
:1031C000F0011124DF01A753BB4F14968C91149783
:1031D000811551F111968C911197831325C08C9113
:1031E000841322C015968C91159781111DC01296DB
:1031F0008D919D91A0910305B09104058A1B9B0BB5
:10320000883C910588F4809107058F7080618093D8
:103210000705E153FB4F80818F708061808381E0DF
:1032200095E07CDB0C94E9046F5F7F4FFB01E77056
:10323000C1CFADE0B0E0EFE1F9E10C943A218C01AF
:1032400086E0F801DE01189601900D928A95E1F76B
:10325000F801F580C48081E0882E85E0982E70907A
:10326000050571101FC0C114D1F0F11409F414C187
:10327000C8010E948E07811509F40EC187E0F8018C
:10328000D40101900D928A95E1F78C2D813031F4B3
:1032900080910105909102050E9484077BDFFF2445
:1032A000F39453C0E080A280B380D0900605809153
:1032B0000305909104059501281B390BD11409F4DD
:1032C000B4C0283C310508F08CC0C11441F3909182
:1032D0000205C18080910705803108F055C0C912F0
:1032E00013C0909101059E110FC0F11047C08F705F
:1032F00080618093070581E095E010DB80910705F0
:10330000F8018683F12C21C0F11038C040E06C2D0B
:103310008E2D0E94CA0440E06C2D8E2D0E94CA049E
:10332000F82E8111EFCF888599850E948407292F77
:1033300022952F70903468F49F70223090F0911590
:10334000A1F0F8019681903180F48F2D2D96EDE05B
:10335000ADC72A5F2F70223060F0C801DFDAFD2C84
:10336000F4CF911511F0811581F3805E883068F3F8
:10337000F4CF803F50F3815F8330F9CF8091070510
:10338000816080930705BECFC91207C090910105E7
:103390009E1103C0F11409F469C0C8010E948E0790
:1033A000811509F479C0F11409F476C080910705FC
:1033B000803270F0209101053091020529833A8313
:1033C000AB82BC827D821E828F83CE010196A6DAFB
:1033D00087E0F801A1E0B5E001900D928A95E1F750
:1033E0005DCF80910705803148F481E095E096DA61
:1033F000F40187E011928A95E9F784CFC11409F4AA
:103400004ECF2091020591812913C7CF90910105DC
:103410009E11C3CFF110C1CF8683C8017FDAF401BA
:1034200087E011928A95E9F73ACF283C310500F7F9
:10343000C11409F434CFF11479F19091020581811E
:10344000981320C0809101058E111CC08091070542
:1034500080FD0FC0803168F08683807F803F39F027
:103460008681982F907F905F8F70892B8683C8010B
:1034700055DA87E0F801A1E0B5E001900D928A9558
:10348000E1F70DCFC8010E948E078111A1CF809175
:103490000705816080930705C80140DA00CFABE1E2
:1034A000B0E0E4E5FAE1EFC64E8B5F8B688F798F71
:1034B0008A8F192F9B8F91111092C6041D8A86E066
:1034C000FE017696DE011F9601900D928A95E1F736
:1034D0000A8D011561F00B8B1C8B61E0CE010F96FC
:1034E0000E94690761E0CE010F960E9469070B8B6D
:1034F0001C8B87E0FE013F96DE01189601900D922D
:103500008A95E1F7CE01089694DE81112EC02091B4
:10351000C7043091C80487E0AE01485F5F4FFA01ED
:1035200047505109DA0101900D928A95E1F78C8597
:103530008115D9F0822F90E08395877090E0AC01DF
:1035400034171506D9F097E0929FD0011124A753A4
:10355000BB4F9E012F5F3F4FF90101900D929A954D
:10356000E1F74093C7040E94E9048091C804909158
:10357000C704891310C06B96E4E0A1C60E94970DA2
:103580001092C7041092C804E1E0F5E087E01192C0
:103590008A95E9F7EACF27E0829FC001112487537B
:1035A0009B4F47DE811539F38091C8049091C9047F
:1035B000019687708093C804D8CFA6E0B0E0E2EE11
:1035C000FAE161C645D88C0180917C0490917D041C
:1035D0008017910769F019821A823AD8BC01498193
:1035E0005A8180E090E05BDF00937C0410937D04BF
:1035F0002696E4E064C600D000D000D0CDB7DEB798
:1036000085B7806885BF85B7806885BF84B7877FA9
:1036100084BF0FB6F894A89580916000886180936C
:103620006000109260000FBE80E890E00FB6F89442
:1036300080936100909361000FBE81E08093200130
:1036400089EB97E08093CC019093CD010E94ED0B24
:103650000E949E0B8091E20084608093E200789447
:1036600080915804811599F08091E9001091EC0047
:103670008F7010FB112717F9182B1092E900809119
:10368000E80083FD0E94C00D1F701093E90082E0E6
:1036900084BD93E095BD9AEF97BD80936E00E9E6F7
:1036A000F4E088E011928A95E9F781E0809368045C
:1036B00060E080E00E94AF0961E080E00E94AF0915
:1036C0008FE891E00197F1F700C0000010E08091D1
:1036D0006804181708F46DC087EF0E94BB0785E3E4
:1036E0000E94BB0786E30E94BB0787E90E94BB07D5
:1036F00083E30E94BB0782E30E94BB07E6E7F4E096
:1037000083E011928A95E9F7E9E7F4E083E011920A
:103710008A95E9F780E090E038D6833E9E4F29F104
:1037200063EE7EEF80E090E04FD660E082E090E0D4
:1037300031D681E090E08093BF041092C00461E034
:1037400083E028D660E074E184E090E03DD60E94FA
:10375000BC1060E070E0AB018FE090E02DD660E03F
:1037600070E0AB0183E190E027D682E090E000D6E4
:1037700080935C0484E090E008D68093C404909326
:10378000C5040E943D138FEF96E721E081509040E1
:103790002040E1F700C000000E943D1380917604B4
:1037A00080FF19C06FEF7FEF80E090E00DD60E94A0
:1037B000AF0A60E0812F0E94C709082F61E0812FC6
:1037C0000E94C709E12FF0E0E959FB4F880F802BD9
:1037D00080831F5F7CCF83E090E0CAD590E00E9499
:1037E00037041092540480E88093530419D46BE09A
:1037F00070E088E098E00E9484118115E9F18091E1
:10380000540465E070E081FDDBC083E098E00E9435
:103810008411811589F16DE070E081EF97E00E94DD
:103820008411811549F10E94A30ADC01CB01805A61
:103830009541AF4FBF4F80934F0490935004A09396
:103840005104B0935204ECE4F2E0DF0180E092E036
:103850001D920197E9F7E0934A02F0934B028FEF34
:103860009FEF809348029093490281E080934E0439
:1038700080934D0410924C0480915504811128C00E
:1038800084EB94E00E9463108091B404843008F0CB
:103890009AC00E94BC1084EB94E00E946310809157
:1038A000B404843008F08FC0837084608093B404C3
:1038B0001092B3040E94DA098091B40480FF05C01D
:1038C00060E0869586950E94E41381E0809355041C
:1038D00083E191E080939E0490939F04809158042B
:1038E000853049F480915804853009F473C00E94F2
:1038F000970D0E94E7090E943D13909176048091F4
:103900005D049813C0C09091770480915E04981371
:10391000BAC090915F04809178049813B4C04DDED2
:10392000D12C8091B3048115D9F18091B204E0913A
:10393000B404E695E695E81BE0936204823009F052
:10394000FCC0F0E0E45EF74FE4910E2F10E050EB86
:10395000E52E58E0F52E80916304811561F01092F8
:1039600063040E9428138093600490936104109272
:103970006404109265040E94281320916004309121
:103980006104821B930B8F3F9F4750F4200F311F20
:10399000209360043093610480E694E0F701099578
:1039A00080917104811551F080916B041092710423
:1039B00080936C048091690480936A0400E041C1A3
:1039C0008EEF97E024CF8091B40487FF71CF83708E
:1039D0008C676CCF80915804843031F10E94B31110
:1039E0001092560488E190E020E40FB6F894A89570
:1039F000809360000FBE2093600083B7817F846056
:103A000083BF83B7816083BF7894889583B78E7FA7
:103A100083BF0FB6F894A895809160008861809369
:103A20006000109260000FBE0E943D13209176044A
:103A3000209359048091770480935A0490917804DC
:103A400090935B04822B892B09F44CCF809157040F
:103A5000811509F447CF80E189BD82E189BD09B4B0
:103A600000FEFDCF8091D8008F7D8093D80080919B
:103A7000E00082608093E0008091E00081FDFCCF57
:103A80000E94970D2FCF86E794E01C017DE5A72EBD
:103A900074E0B72E09E514E0912CF10181901F012B
:103AA000F50181915F018815E1F18825582EE12CFF
:103AB000F12C77247394852D872149F1682C672098
:103AC00061E0C62E0E2C01C0CC0C0A94EAF7F80176
:103AD000808190E08C21892B99F4E9829A820E945E
:103AE00028138B839C8381E08D8391E0611001C05A
:103AF00090E09E8349815A816B817C818D81CFDCEE
:103B0000611005C0C094F80180818C218083770CFE
:103B10008FEFE81AF80A83E0E816F10461F6F50180
:103B2000829293940F5F1F4F892D833009F0B5CF98
:103B30000E94A30ADD24D394F4CE863059F4F0E039
:103B4000E75EF74FE4910E2F10E041EAE42E48E0E3
:103B5000F42E01CF893061F4E695F0E0EA5EF74F8C
:103B6000E4910E2F10E033ECE32E38E0F32EF3CE89
:103B70008F3061F4E695F0E0ED5EF74FE4910E2FA3
:103B800010E029EEE22E28E0F22EE5CE00ED17E05F
:103B900091EDE92E97E0F92E8F3109F0DCCE04EF9C
:103BA00011E083E4E82E89E0F82ED5CEF0906C0485
:103BB00010916B0461E0802F0E94C709E82E60E03D
:103BC000802F0E94C709EE0C8E29202F30E0D901EA
:103BD000A959BB4FEC919E2F9370891789F1EE0F75
:103BE000EE0FE82BEC93EF70F0E0E75BFE4F2A5905
:103BF0003B4F8081F9019081890F84300CF447C0DC
:103C0000412F50E0BA016395637070E0F616170615
:103C100079F047595B4F902F9F77FA0194831F5F8C
:103C2000137010936B04909169049F5F90936904E3
:103C3000982F990F990B64E070E05BD3F9018083B2
:103C40000F5F80916804081708F4B0CF90E080916E
:103C50006C0420916B04281751F1E82FF0E0E35930
:103C6000FB4F90818F5F837080936C0480916A0416
:103C70008F5F80936A046AE070E089EA97FD03C071
:103C80006AE070E08AEA0E94720D91E0E0CF8D3F19
:103C90007CF6412F50E0BA016395637070E0F61630
:103CA000170631F247595B4F902F9068B6CF9115A8
:103CB00039F00E94A30A0E94C4110E94911104C00D
:103CC0000E94C411D110F9CF0E94E70990917204AB
:103CD000891709F403CE809372040E94A30AFECDD3
:103CE00078941F921FB61F9211248F939F93AF93C6
:103CF000BF938091090290910A02A0910B02B091AA
:103D00000C020196A11DB11D8093090290930A0235
:103D1000A0930B02B0930C02BF91AF919F918F9132
:103D20001F901FBE1F9018951F920F920FB60F92F3
:103D300011242F933F934F935F936F937F938F93B0
:103D40009F93AF93BF93EF93FF938091E10082FF26
:103D500009C08091E20082FF05C08091E1008B7F65
:103D60008093E1008091DA0080FF24C08091D80028
:103D700080FF20C08091DA008E7F8093DA008091EE
:103D8000D90080FFA9C080E189BD82E189BD09B465
:103D900000FEFDCF81E0809358048091F8018111ED
:103DA00009C00E94ED0B0E949E0B8091E20084608E
:103DB0008093E2008091E10080FF1AC08091E200D0
:103DC00080FF16C08091E2008E7F8093E200809198
:103DD000E20080618093E2008091D800806280934D
:103DE000D80019BC85E08093580483E080932001BB
:103DF0008091E10084FF2FC08091E20084FF2BC0FE
:103E000080E189BD82E189BD09B400FEFDCF8091CA
:103E1000D8008F7D8093D8008091E1008F7E8093C1
:103E2000E1008091E2008F7E8093E2008091E200C9
:103E300081608093E2008091F701811509F452C0FE
:103E400084E08093580480915804843009F052C073
:103E500082E0809320018091E10083FF2CC080915B
:103E6000E20083FF28C08091E100877F8093E1001A
:103E700082E0809358041092F7018091E1008E7FD8
:103E80008093E1008091E2008E7F8093E200809138
:103E9000E20080618093E20042E060E080E00E9406
:103EA0001E0B8091F00088608093F00081E0809389
:103EB000200180931F01FF91EF91BF91AF919F91DE
:103EC0008F917F916F915F914F913F912F910F90C3
:103ED0000FBE0F901F90189519BC109258041092A5
:103EE000F80168CF8091E30087FF02C083E0A9CF8B
:103EF00081E0A7CF81E0ADCF1F920F920FB60F9256
:103F000011241F932F933F934F935F936F937F934E
:103F10008F939F93AF93BF93CF93DF93EF93FF93D1
:103F2000E9EEF0E080811091EC008F7010FB11271A
:103F300017F9182B1082C0EFD0E08881877F888323
:103F400078940E94C00DE9EEF0E0108288818860CC
:103F500088831F701083FF91EF91DF91CF91BF9104
:103F6000AF919F918F917F916F915F914F913F9111
:103F70002F911F910F900FBE0F901F901895EF92E9
:103F8000FF921F93CF93DF93182FEB011092BC0089
:103F900084EA8093BC000E9428137C018091BC00BD
:103FA00087FF26C08091B900887F883029F08091F2
:103FB000B900887F803189F51093BB0084E8809335
:103FC000BC000E9428137C018091BC0087FF1EC0AA
:103FD0002091B900287F80E090E0283189F081E0CD
:103FE00090E0203409F480E091958195910908C012
:103FF000C7010E943413C817D90780F68EEF9FEFD0
:10400000DF91CF911F91FF90EF900895C7010E941B
:104010003413C817D907C0F6F1CF8FEF9FEFF0CF59
:104020001092B9008CE08093B80008950F931F930D
:10403000CF93DF93EB018093BB0084E88093BC00B7
:104040000E9428138C018091BC0087FF10C0209132
:10405000B900287F81E090E0283209F480E0919552
:1040600081959109DF91CF911F910F910895CF3FD5
:10407000DC0749F3C8010E943413C817D90718F7A1
:104080008EEF9FEFEFCFA0E0B0E0E8E4F0E2F2C007
:10409000982E862E772E6A0179010E9428135C01E2
:1040A00084E1E816F10410F18FEFE816FE0409F13F
:1040B000C70164E170E0C5D0162F072F612F702F64
:1040C000892D5DDFEC01892BB1F4082D172DC00E71
:1040D000D11E0C151D0511F02097C1F084E98093C5
:1040E000BC00CE01CDB7DEB7EDE0E0C011E000E0EE
:1040F000E5CF15E0FCCF8FEFE816FE04F9F2C5011D
:104100000E943413E816F906C8F6DFCFB701F801AC
:1041100081918F018BDFEC01DCCFA0E0B0E0E2E920
:10412000F0E2A8C0982E862E772E6A0189010E949F
:1041300028135C010431110500F10F3F100701F154
:10414000C80164E170E07DD0EB01BE01892D17DF6D
:104150007C01892BB9F4C82DD72DCC0EDD1ECC15D2
:10416000DD0519F0E114F104B9F084E98093BC0095
:10417000C701CDB7DEB7EDE099C0C1E0D0E0E5CF33
:10418000C5E0FCCF0F3F100701F3C5010E943413B7
:1041900008171907D0F6DFCFFE018491B80146DF7A
:1041A0007C012196DCCFA0E0B0E0E8EDF0E261C058
:1041B000982E862E742E652E6901E8010E94281320
:1041C0005C010431110508F10F3F100711F1C8011E
:1041D00064E170E036D0F62EE72E6F2D7E2D892D0E
:1041E000CEDE8C01892BC1F0CF3FDC07B1F3C501D6
:1041F0000E943413C817D90780F784E98093BC0064
:10420000C801CDB7DEB7EEE050C0FF24F394E12C37
:10421000E4CF85E0F82EFBCFBE01882D07DF8C01AF
:10422000E72CF62CCE0CDF1CEC14FD0431F3011549
:10423000110519F7BE01F70181917F01F7DE8C01AD
:10424000F3CFAA1BBB1B51E107C0AA1FBB1FA617B8
:10425000B70710F0A61BB70B881F991F5A95A9F72F
:1042600080959095BC01CD0108952F923F924F9279
:104270005F926F927F928F929F92AF92BF92CF92F6
:10428000DF92EF92FF920F931F93CF93DF93CDB7FF
:10429000DEB7CA1BDB0B0FB6F894DEBF0FBECDBF77
:1042A00009942A88398848885F846E847D848C8448
:1042B0009B84AA84B984C884DF80EE80FD800C8151
:1042C0001B81AA81B981CE0FD11D0FB6F894DEBF34
:1042D0000FBECDBFED01089587FB082E062687FD92
:1042E000819567FD61951ED00EF4919507FC81952F
:1042F000089597FB072E16F4009406D077FD08D09A
:10430000A0DF07FC05D03EF4909581959F4F08955E
:10431000709561957F4F0895EE0FFF1F0590F49102
:10432000E02D0994992778E0880F991F961708F0D7
:10433000961B881F7A95C9F780950895FC01415016
:10434000504030F001900616D1F73197CF01089513
:10435000882799270895FB01DC0104C08D91019005
:10436000801921F441505040C8F7881B990B0895DB
:10437000F999FECF92BD81BDF89A992780B508952D
:10438000A6E1B0E044E050E025C0A8E1B0E042E0A2
:1043900050E020C0262FF999FECF92BD81BDF89A3A
:1043A000019700B4021639F01FBA20BD0FB6F89479
:1043B000FA9AF99A0FBE08950396272FECDFEADFE9
:1043C000252FE9DF242FE7CF0196272FE4DFE2CF67
:1043D000DC01CB01FC01F999FECF06C0F2BDE1BDC5
:1043E000F89A319600B40D9241505040B8F70895B4
:1043F000F894FFCF9D0EC30EC90EC30EC90E170F42
:10440000390FC90E29103610C614CA14AA14C214C2
:10441000CE14D214D61438159E1540150B150F1551
:1044200044151315481554151F15971523155815C0
:1044300027155C1580152B1560158715301565152A
:104440006D1517154C151B15501534156915771575
:104450008F15951505153C15A515BA15D115D5154A
:10446000D915DD15E115E515E915ED15F115F5156C
:10447000010021007F2200030115161718191A1BCD
:104480001C1D1EA00A6B0C7E0CC00A830C000001D0
:1044900000000810181810080000010202020206AD
:1044A00006060909090909090F0F0F0F0F0F151546
:1044B00015151515151515151F00FF010001000034
:1044C000FFFF0000010001FF00F73536973332E2AD
:1044D00000E900EA00B500B600B700CD008301CCCA
:1044E000008A01920194012102230224022502265E
:1044F0000227022A02B300B4006F0070009F01CBB4
:10450000019F02A002E200E900EA00B500B600B790
:1045100000CD008301CC008A019201940121022385
:104520000224022502260227022A02B300B4006FE9
:0C4530000070009F01CB019F02A0020060
:00000001FF
